:020000040000FA
:100000000C9452000C9464000C9464000C946400F2
:100010000C9464000C9464000C9464000C946400D0
:100020000C9464000C9464000C9464000C946400C0
:100030000C9464000C94DB010C9464000C94640038
:100040000C9491010C9464000C9464000C94640072
:100050000C9464000C9464000C9464000C94640090
:100060000C9464000C94640000000000250028003B
:100070002B0000000000240027002A0004040404D0
:100080000404040402020202020203030303030342
:10009000010204081020408001020408102001021F
:1000A0000408102011241FBECFEFD8E0DEBFCDBF63
:1000B00021E0A0E0B1E001C01D92A232B207E1F759
:1000C0000E94E5010C94F1050C940000CF93DF939E
:1000D00090E0FC01E057FF4F249184589F4FFC01B2
:1000E00084918823D1F090E0880F991FFC01EE588D
:1000F000FF4FA591B491FC01E859FF4FC591D491F0
:1001000061110EC09FB7F8948C91E22FE0958E2379
:100110008C932881E223E8839FBFDF91CF910895DC
:100120008FB7F894EC91E22BEC938FBFF6CF8E5003
:10013000806480937C0080917A00806480937A0050
:1001400080917A0086FDFCCF8091780090917900B3
:1001500008953FB7F89480911E0190911F01A091DE
:100160002001B091210126B5A89B05C02F3F19F0B1
:100170000196A11DB11D3FBFBA2FA92F982F882727
:10018000BC01CD01620F711D811D911D42E0660F02
:10019000771F881F991F4A95D1F7089508958F9268
:1001A0009F92AF92BF92CF92DF92EF92FF92CF9346
:1001B000DF93109204011092050110920601109233
:1001C0000701109200011092010110920201109299
:1001D0000301C3E0D0E08FE00E949700BC01990FBB
:1001E000880B990B0E94B9042AE939E94CE453E4DD
:1001F0000E940F04209104013091050140910601F5
:10020000509107010E949E036B017C01C092040182
:10021000D0920501E0920601F09207018EE00E9463
:100220009700BC01990F880B990B0E94B9042AE929
:1002300039E94CE453E40E940F042091000130910D
:10024000010140910201509103010E949E034B0164
:100250005C018092000190920101A0920201B09293
:100260000301219709F0B7CF20E030E040E450E4EB
:10027000C701B6010E940F0420E030E04AEC52E4CE
:100280000E946E0560930B0170930C0180930D0129
:1002900090930E0120E030E040E450E4C501B40149
:1002A0000E940F0420E030E04AEC52E40E946E0508
:1002B00060931501709316018093170190931801B4
:1002C00080E10E949700BC01990F880B990B0E9456
:1002D000B9042AE939E94CE453E40E940F0420E010
:1002E00030E048EC52E40E946E050E9481046139BE
:1002F00021E072077CF47093140160931301DF9185
:10030000CF91FF90EF90DF90CF90BF90AF909F90F4
:100310008F90089580E991E09093140180931301E8
:10032000EECF1F920F920FB60F9211242F933F938F
:100330008F939F93AF93BF9380911A0190911B016C
:10034000A0911C01B0911D013091190123E0230FF0
:100350002D3758F50196A11DB11D209319018093E9
:100360001A0190931B01A0931C01B0931D01809171
:100370001E0190911F01A0912001B09121010196D1
:10038000A11DB11D80931E0190931F01A093200118
:10039000B0932101BF91AF919F918F913F912F9188
:1003A0000F900FBE0F901F90189526E8230F02960E
:1003B000A11DB11DD2CF1F920F920FB60F92112423
:1003C0000F900FBE0F901F901895789484B582609F
:1003D00084BD84B5816084BD85B5826085BD85B5E9
:1003E000816085BD80916E00816080936E00109267
:1003F00081008091810082608093810080918100E2
:10040000816080938100C0E8D0E0809180008160AD
:10041000809380008091B10084608093B1008091CE
:10042000B00081608093B00080917A0084608093F6
:100430007A0080917A00826080937A0080917A00BD
:10044000816080937A0080917A00806880937A003E
:100450001092C10061E089E00E94660060E08EE0D9
:100460000E94660060E08EE00E94660060E080E12D
:100470000E94660080E1809381001092800081E0FC
:1004800080930801D0931001C0930F01D09387008F
:10049000C093860081E18093810061E089E00E9441
:1004A00066008091800080688093800010928900AF
:1004B00010928800809108018061809381001092E1
:1004C0008100109285001092840080910801806163
:1004D000809381000E94CF006091130170911401FC
:1004E000072E000C880B990B0E94B9049B01AC01EC
:1004F00060910B0170910C0180910D0190910E01A2
:100500000E940F049B01AC0160E070E080E89FE373
:100510000E949D0320E030EC4FE754E40E946E05FA
:100520000E94810470930A0160930901C091110136
:10053000D09112016091130170911401072E000CEB
:10054000880B990B0E94B904209115013091160176
:1005500040911701509118010E946905181644F046
:100560008091090190910A01C817D9070CF075C054
:10057000DE011196A11523E0B20714F0AFEFB2E04F
:10058000B7FF02C0B0E0A0E0B0931201A093110148
:1005900020910F01309110010E94DB054AE09695F1
:1005A0008795779567954A95D1F770938900609301
:1005B00088000E94CF00C0901501D0901601E090F5
:1005C0001701F09018016091130170911401072E2A
:1005D000000C880B990B0E94B904A70196010E9498
:1005E0000A0487FD3AC020911101309112018091D7
:1005F000090190910A01821793077CF120E030E015
:1006000048EC53E4C701B6010E94690518162CF1A5
:100610000E94A9004B015C0134E6C32ED12CE12CD1
:10062000F12C0E94A900681979098A099B09683E82
:10063000734081059105A8F381E0C81AD108E1084B
:10064000F10828EE820E23E0921EA11CB11CC114F9
:10065000D104E104F10429F769CF1092120110923C
:10066000110100E010E00E94CF00C0901501D09071
:100670001601E0901701F090180120E030E048ECFE
:1006800053E4C701B6010E940A0487FF51C060917C
:10069000130170911401072E000C880B990B0E9416
:1006A000B9044B015C01C0911101D0911201AC0160
:1006B0009B01C701B6010E94690518167CF52197B8
:1006C000D0931201C0931101A0911101B0911201B8
:1006D000A11583E0B80714F0AFEFB2E0B7FF02C096
:1006E000B0E0A0E0B0931201A093110120910F019E
:1006F000309110010E94DB052AE096958795779549
:1007000067952A95D1F77093890060938800011549
:10071000110509F4A8CF0E940000A5CFA5019401FE
:10072000C701B6010E940A0487FFCECF2196C8CF29
:100730001092120110921101C7CF5058BB27AA275F
:100740000E94B5030C942F050E94210538F00E94E9
:10075000280520F039F49F3F19F426F40C941E0567
:100760000EF4E095E7FB0C941805E92F0E94400574
:1007700058F3BA17620773078407950720F079F4D6
:10078000A6F50C9462050EF4E0950B2EBA2FA02D61
:100790000B01B90190010C01CA01A0011124FF272E
:1007A000591B99F0593F50F4503E68F11A16F04029
:1007B000A22F232F342F4427585FF3CF4695379528
:1007C0002795A795F0405395C9F77EF41F16BA0BED
:1007D000620B730B840BBAF09150A1F0FF0FBB1F9B
:1007E000661F771F881FC2F70EC0BA0F621F731FE4
:1007F000841F48F4879577956795B795F7959E3F41
:1008000008F0B0CF9395880F08F09927EE0F9795D1
:10081000879508950E94F40408F481E008950E94E9
:1008200023040C942F050E94280558F00E942105EE
:1008300040F029F45F3F29F00C94180551110C94F5
:1008400063050C941E050E94400568F39923B1F3DB
:10085000552391F3951B550BBB27AA2762177307E6
:10086000840738F09F5F5F4F220F331F441FAA1F7A
:10087000A9F335D00E2E3AF0E0E832D09150504036
:10088000E695001CCAF72BD0FE2F29D0660F771FE4
:10089000881FBB1F261737074807AB07B0E809F0CA
:1008A000BB0B802DBF01FF2793585F4F3AF09E3F4F
:1008B000510578F00C9418050C9463055F3FE4F340
:1008C000983ED4F3869577956795B795F7959F5F92
:1008D000C9F7880F911D9695879597F90895E1E0DE
:1008E000660F771F881FBB1F621773078407BA073D
:1008F00020F0621B730B840BBA0BEE1F88F7E09598
:1009000008950E9488046894B1110C9463050895B9
:100910000E94480588F09F5798F0B92F9927B75142
:10092000B0F0E1F0660F771F881F991F1AF0BA9593
:10093000C9F714C0B13091F00E946205B1E008958A
:100940000C946205672F782F8827B85F39F0B93F7C
:10095000CCF3869577956795B395D9F73EF4909546
:100960008095709561957F4F8F4F9F4F0895E894C4
:1009700009C097FB3EF490958095709561957F4FE7
:100980008F4F9F4F9923A9F0F92F96E9BB27939595
:10099000F695879577956795B795F111F8CFFAF4A5
:1009A000BB0F11F460FF1BC06F5F7F4F8F4F9F4FD6
:1009B00016C0882311F096E911C0772321F09EE834
:1009C000872F762F05C0662371F096E8862F70E09A
:1009D00060E02AF09A95660F771F881FDAF7880F74
:1009E0009695879597F90895990F0008550FAA0BCA
:1009F000E0E8FEEF16161706E807F907C0F0121632
:100A00001306E407F50798F0621B730B840B950B34
:100A100039F40A2661F0232B242B252B21F4089589
:100A20000A2609F4A140A6958FEF811D811D089526
:100A300097F99F6780E870E060E008959FEF80EC91
:100A4000089500240A941616170618060906089534
:100A500000240A9412161306140605060895092E9A
:100A60000394000C11F4882352F0BB0F40F4BF2B09
:100A700011F460FF04C06F5F7F4F8F4F9F4F089549
:100A800057FD9058440F551F59F05F3F71F047953F
:100A9000880F97FB991F61F09F3F79F08795089524
:100AA000121613061406551FF2CF4695F1DF08C043
:100AB000161617061806991FF1CF86957105610560
:100AC00008940895E894BB2766277727CB0197F908
:100AD00008950E94F40408F48FEF08950E948105A0
:100AE0000C942F050E94210538F00E94280520F063
:100AF000952311F00C9418050C941E0511240C94E8
:100B000063050E94400570F3959FC1F3950F50E077
:100B1000551F629FF001729FBB27F00DB11D639FAF
:100B2000AA27F00DB11DAA1F649F6627B00DA11D55
:100B3000661F829F2227B00DA11D621F739FB00DFB
:100B4000A11D621F839FA00D611D221F749F33276B
:100B5000A00D611D231F849F600D211D822F762F04
:100B60006A2F11249F5750409AF0F1F088234AF0E1
:100B7000EE0FFF1FBB1F661F771F881F915050404D
:100B8000A9F79E3F510580F00C9418050C9463055D
:100B90005F3FE4F3983ED4F3869577956795B795D4
:100BA000F795E7959F5FC1F7FE2B880F911D9695EE
:100BB000879597F908950E94E205B7FF0895821B73
:100BC000930B0895A29FB001B39FC001A39F700D26
:100BD000811D1124911DB29F700D811D1124911D45
:060BE0000895F894FFCF18
:107E0000112484B714BE81FFF0D085E080938100F7
:107E100082E08093C00088E18093C10086E0809377
:107E2000C20080E18093C4008EE0C9D0259A86E02C
:107E300020E33CEF91E0309385002093840096BBD3
:107E4000B09BFECF1D9AA8958150A9F7CC24DD24C4
:107E500088248394B5E0AB2EA1E19A2EF3E0BF2EE7
:107E6000A2D0813461F49FD0082FAFD0023811F036
:107E7000013811F484E001C083E08DD089C08234E0
:107E800011F484E103C0853419F485E0A6D080C0E4
:107E9000853579F488D0E82EFF2485D0082F10E0AE
:107EA000102F00270E291F29000F111F8ED06801E7
:107EB0006FC0863521F484E090D080E0DECF843638
:107EC00009F040C070D06FD0082F6DD080E0C81688
:107ED00080E7D80618F4F601B7BEE895C0E0D1E017
:107EE00062D089930C17E1F7F0E0CF16F0E7DF06D8
:107EF00018F0F601B7BEE89568D007B600FCFDCFD4
:107F0000A601A0E0B1E02C9130E011968C91119780
:107F100090E0982F8827822B932B1296FA010C0160
:107F200087BEE89511244E5F5F4FF1E0A038BF0790
:107F300051F7F601A7BEE89507B600FCFDCF97BE46
:107F4000E89526C08437B1F42ED02DD0F82E2BD052
:107F50003CD0F601EF2C8F010F5F1F4F84911BD097
:107F6000EA94F801C1F70894C11CD11CFA94CF0C13
:107F7000D11C0EC0853739F428D08EE10CD085E9AC
:107F80000AD08FE07ACF813511F488E018D01DD067
:107F900080E101D065CF982F8091C00085FFFCCF94
:107FA0009093C60008958091C00087FFFCCF809118
:107FB000C00084FD01C0A8958091C6000895E0E648
:107FC000F0E098E1908380830895EDDF803219F02E
:107FD00088E0F5DFFFCF84E1DECF1F93182FE3DFCA
:107FE0001150E9F7F2DF1F91089580E0E8DFEE27F6
:047FF000FF270994CA
:027FFE00040479
:00000001FF
