:100000000C9452000C9464000C9464000C946400F2
:100010000C9464000C9464000C9464000C946400D0
:100020000C9464000C9464000C9464000C946400C0
:100030000C9464000C94BC020C9464000C94640056
:100040000C9472020C9464000C9464000C94640090
:100050000C9464000C9464000C9464000C94640090
:100060000C9464000C94640000000000250028003B
:100070002B0000000000240027002A0004040404D0
:100080000404040402020202020203030303030342
:10009000010204081020408001020408102001021F
:1000A0000408102011241FBECFEFD8E0DEBFCDBF63
:1000B00021E0A0E0B1E001C01D92AF31B207E1F74D
:1000C0000E94C6020C94A8050C940000CF93DF9305
:1000D00090E0FC01E057FF4F249184589F4FFC01B2
:1000E00084918823D1F090E0880F991FFC01EE588D
:1000F000FF4FA591B491FC01E859FF4FC591D491F0
:1001000061110EC09FB7F8948C91E22FE0958E2379
:100110008C932881E223E8839FBFDF91CF910895DC
:100120008FB7F894EC91E22BEC938FBFF6CF8E5003
:10013000806480937C0080917A00806480937A0050
:1001400080917A0086FDFCCF8091780090917900B3
:1001500008953FB7F89480911B0190911C01A091E4
:100160001D01B0911E0126B5A89B05C02F3F19F0B7
:100170000196A11DB11D3FBFBA2FA92F982F882727
:10018000BC01CD01620F711D811D911D42E0660F02
:10019000771F881F991F4A95D1F7089508958F9268
:1001A0009F92AF92BF92CF92DF92EF92FF92CF9346
:1001B000DF9310920A0110920B0110920C01109221
:1001C0000D01109206011092070110920801109281
:1001D0000901C3E0D0E08FE00E949700BC01990FB5
:1001E000880B990B0E9486042AE939E94CE453E410
:1001F0000E94DC0320910A0130910B0140910C0117
:1002000050910D010E946B036B017C01C0920A01A9
:10021000D0920B01E0920C01F0920D018EE00E9451
:100220009700BC01990F880B990B0E9486042AE95C
:1002300039E94CE453E40E94DC032091060130913B
:10024000070140910801509109010E946B034B0185
:100250005C018092060190920701A0920801B09281
:100260000901219709F0B7CF20E030E040E450E4E5
:10027000C701B6010E94DC0320E030E04AEC52E402
:100280000E943B0560930201709303018093040177
:100290009093050120E030E040E450E4C501B40152
:1002A0000E94DC0320E030E04AEC52E40E943B056F
:1002B00060931201709313018093140190931501C0
:1002C00080E10E949700BC01990F880B990B0E9456
:1002D00086042AE939E94CE453E40E94DC0320E077
:1002E00030E048EC52E40E943B050E944E04613924
:1002F00021E072077CF47093110160931001DF918B
:10030000CF91FF90EF90DF90CF90BF90AF909F90F4
:100310008F90089580E991E09093110180931001EE
:10032000EECF8F929F92AF92BF92CF92DF92EF92D9
:10033000FF92CF93DF9361E089E00E94660060E066
:100340008EE00E94660060E08EE00E94660060E041
:1003500080E10E9466000E9491010E94CF0060919E
:10036000100170911101072E000C880B990B0E944F
:1003700086049B01AC0160910201709103018091A0
:100380000401909105010E94DC039B01AC0160E037
:1003900070E080E89FE30E946A0320E030EC4FE7C2
:1003A00054E40E943B050E944E0470930101609347
:1003B0000001C0910E01D0910F0160911001709168
:1003C0001101072E000C880B990B0E9486042091C6
:1003D00012013091130140911401509115010E94B6
:1003E0003605181644F08091000190910101C8175C
:1003F000D9070CF068C0CE010196811523E0920761
:1004000014F08FEF92E097FF02C090E080E09093AD
:100410000F0180930E0110928900109288000E94B3
:10042000CF00C0901201D0901301E0901401F09021
:1004300015016091100170911101072E000C880BBD
:10044000990B0E948604A70196010E94D70387FD9D
:100450003AC020910E0130910F01809100019091DE
:100460000101821793077CF120E030E048EC53E46F
:10047000C701B6010E94360518162CF10E94A9008A
:100480004B015C0184E6C82ED12CE12CF12C0E949A
:10049000A900681979098A099B09683E734081059A
:1004A0009105A8F381E0C81AD108E108F10828EE07
:1004B000820E23E0921EA11CB11CC114D104E104E0
:1004C000F10429F776CF10920F0110920E01DF91FF
:1004D000CF91FF90EF90DF90CF90BF90AF909F9023
:1004E0008F9008951F920F920FB60F9211242F93A1
:1004F0003F938F939F93AF93BF93809117019091F8
:100500001801A0911901B0911A013091160123E050
:10051000230F2D3758F50196A11DB11D209316010B
:100520008093170190931801A0931901B0931A01B9
:1005300080911B0190911C01A0911D01B0911E01A1
:100540000196A11DB11D80931B0190931C01A093E6
:100550001D01B0931E01BF91AF919F918F913F916B
:100560002F910F900FBE0F901F90189526E8230F24
:100570000296A11DB11DD2CF1F920F920FB60F92FE
:1005800011240F900FBE0F901F901895789484B58A
:10059000826084BD84B5816084BD85B5826085BD7F
:1005A00085B5816085BD80916E00816080936E000D
:1005B00010928100809181008260809381008091FF
:1005C00081008160809381008091800081608093B0
:1005D00080008091B10084608093B1008091B00070
:1005E00081608093B00080917A00846080937A006B
:1005F00080917A00826080937A0080917A00816095
:1006000080937A0080917A00806880937A001092BB
:10061000C1000E94910100E010E00E94CF00C09054
:100620001201D0901301E0901401F090150120E028
:1006300030E048EC53E4C701B6010E94D70387FFBE
:1006400044C06091100170911101072E000C880BBD
:10065000990B0E9486044B015C01C0910E01D09160
:100660000F01AC019B01C701B6010E9436051816A7
:1006700014F52197D0930F01C0930E0180910E01C4
:1006800090910F01811523E0920714F08FEF92E013
:1006900097FF02C090E080E090930F0180930E01DD
:1006A00010928900109288000115110509F4B5CF48
:1006B0000E940000B2CFA5019401C701B6010E94BB
:1006C000D70387FFDBCF2196D5CF10920F01109271
:1006D0000E01D4CF5058BB27AA270E9482030C9446
:1006E000FC040E94EE0438F00E94F50420F039F476
:1006F0009F3F19F426F40C94EB040EF4E095E7FB0D
:100700000C94E504E92F0E940D0558F3BA1762070F
:1007100073078407950720F079F4A6F50C942F054C
:100720000EF4E0950B2EBA2FA02D0B01B90190010C
:100730000C01CA01A0011124FF27591B99F0593F50
:1007400050F4503E68F11A16F040A22F232F342F98
:100750004427585FF3CF469537952795A795F040E6
:100760005395C9F77EF41F16BA0B620B730B840BFB
:10077000BAF09150A1F0FF0FBB1F661F771F881FB3
:10078000C2F70EC0BA0F621F731F841F48F487950B
:1007900077956795B795F7959E3F08F0B0CF9395FD
:1007A000880F08F09927EE0F9795879508950E9476
:1007B000C10408F481E008950E94F0030C94FC0445
:1007C0000E94F50458F00E94EE0440F029F45F3FC7
:1007D00029F00C94E50451110C9430050C94EB04B1
:1007E0000E940D0568F39923B1F3552391F3951BEE
:1007F000550BBB27AA2762177307840738F09F5F42
:100800005F4F220F331F441FAA1FA9F335D00E2EAE
:100810003AF0E0E832D091505040E695001CCAF71B
:100820002BD0FE2F29D0660F771F881FBB1F2617DE
:1008300037074807AB07B0E809F0BB0B802DBF01B5
:10084000FF2793585F4F3AF09E3F510578F00C9484
:10085000E5040C9430055F3FE4F3983ED4F38695AD
:1008600077956795B795F7959F5FC9F7880F911DA5
:100870009695879597F90895E1E0660F771F881F91
:10088000BB1F621773078407BA0720F0621B730B44
:10089000840BBA0BEE1F88F7E09508950E9455046B
:1008A0006894B1110C94300508950E94150588F0E4
:1008B0009F5798F0B92F9927B751B0F0E1F0660F24
:1008C000771F881F991F1AF0BA95C9F714C0B13065
:1008D00091F00E942F05B1E008950C942F05672F29
:1008E000782F8827B85F39F0B93FCCF38695779594
:1008F0006795B395D9F73EF490958095709561957D
:100900007F4F8F4F9F4F0895E89409C097FB3EF4A7
:1009100090958095709561957F4F8F4F9F4F99234C
:10092000A9F0F92F96E9BB279395F69587957795CA
:100930006795B795F111F8CFFAF4BB0F11F460FF8A
:100940001BC06F5F7F4F8F4F9F4F16C0882311F0E2
:1009500096E911C0772321F09EE8872F762F05C0F6
:10096000662371F096E8862F70E060E02AF09A9591
:10097000660F771F881FDAF7880F9695879597F986
:100980000895990F0008550FAA0BE0E8FEEF161620
:100990001706E807F907C0F012161306E407F50773
:1009A00098F0621B730B840B950B39F40A2661F0E7
:1009B000232B242B252B21F408950A2609F4A1408A
:1009C000A6958FEF811D811D089597F99F6780E897
:1009D00070E060E008959FEF80EC089500240A9491
:1009E0001616170618060906089500240A9412160A
:1009F0001306140605060895092E0394000C11F43D
:100A0000882352F0BB0F40F4BF2B11F460FF04C0E9
:100A10006F5F7F4F8F4F9F4F089557FD9058440F42
:100A2000551F59F05F3F71F04795880F97FB991F4D
:100A300061F09F3F79F0879508951216130614060A
:100A4000551FF2CF4695F1DF08C016161706180697
:100A5000991FF1CF86957105610508940895E89472
:100A6000BB2766277727CB0197F908950E94C10419
:100A700008F48FEF08950E944E050C94FC040E9428
:100A8000EE0438F00E94F50420F0952311F00C9448
:100A9000E5040C94EB0411240C9430050E940D0520
:100AA00070F3959FC1F3950F50E0551F629FF001C1
:100AB000729FBB27F00DB11D639FAA27F00DB11DDA
:100AC000AA1F649F6627B00DA11D661F829F222763
:100AD000B00DA11D621F739FB00DA11D621F839FEA
:100AE000A00D611D221F749F3327A00D611D231FC0
:100AF000849F600D211D822F762F6A2F11249F570E
:100B000050409AF0F1F088234AF0EE0FFF1FBB1F10
:100B1000661F771F881F91505040A9F79E3F5105CF
:100B200080F00C94E5040C9430055F3FE4F3983EAC
:100B3000D4F3869577956795B795F795E7959F5F79
:100B4000C1F7FE2B880F911D9695879597F908950B
:040B5000F894FFCF47
:00000001FF
